{
  "address": "0xA492c6c3f01896050D5E10689cdDB1E9b63E0C0A",
  "abi": [
    {
      "anonymous": false,
      "inputs": [
        {
          "indexed": true,
          "internalType": "address",
          "name": "previousOwner",
          "type": "address"
        },
        {
          "indexed": true,
          "internalType": "address",
          "name": "newOwner",
          "type": "address"
        }
      ],
      "name": "OwnershipTransferred",
      "type": "event"
    },
    {
      "anonymous": false,
      "inputs": [
        {
          "indexed": false,
          "internalType": "address",
          "name": "_from",
          "type": "address"
        },
        {
          "indexed": false,
          "internalType": "string",
          "name": "message",
          "type": "string"
        }
      ],
      "name": "finderEvent",
      "type": "event"
    },
    {
      "inputs": [
        {
          "components": [
            {
              "internalType": "address",
              "name": "tknAddress",
              "type": "address"
            },
            {
              "internalType": "uint256",
              "name": "tknId",
              "type": "uint256"
            },
            {
              "internalType": "uint256",
              "name": "amount",
              "type": "uint256"
            },
            {
              "internalType": "uint256",
              "name": "listingLength",
              "type": "uint256"
            },
            {
              "internalType": "string",
              "name": "compliance",
              "type": "string"
            }
          ],
          "internalType": "struct NFTListing",
          "name": "listing",
          "type": "tuple"
        }
      ],
      "name": "getMatch",
      "outputs": [
        {
          "components": [
            {
              "components": [
                {
                  "internalType": "address",
                  "name": "tknAddress",
                  "type": "address"
                },
                {
                  "internalType": "uint256",
                  "name": "tknId",
                  "type": "uint256"
                },
                {
                  "internalType": "uint256",
                  "name": "amount",
                  "type": "uint256"
                },
                {
                  "internalType": "uint256",
                  "name": "listingLength",
                  "type": "uint256"
                },
                {
                  "internalType": "string",
                  "name": "compliance",
                  "type": "string"
                }
              ],
              "internalType": "struct NFTListing",
              "name": "listing",
              "type": "tuple"
            },
            {
              "internalType": "address",
              "name": "tknAddress",
              "type": "address"
            },
            {
              "internalType": "uint256",
              "name": "tknId",
              "type": "uint256"
            }
          ],
          "internalType": "struct NFTRecommendation",
          "name": "",
          "type": "tuple"
        }
      ],
      "stateMutability": "view",
      "type": "function"
    },
    {
      "inputs": [],
      "name": "owner",
      "outputs": [
        {
          "internalType": "address",
          "name": "",
          "type": "address"
        }
      ],
      "stateMutability": "view",
      "type": "function"
    },
    {
      "inputs": [
        {
          "internalType": "uint256",
          "name": "",
          "type": "uint256"
        }
      ],
      "name": "recommendation",
      "outputs": [
        {
          "components": [
            {
              "internalType": "address",
              "name": "tknAddress",
              "type": "address"
            },
            {
              "internalType": "uint256",
              "name": "tknId",
              "type": "uint256"
            },
            {
              "internalType": "uint256",
              "name": "amount",
              "type": "uint256"
            },
            {
              "internalType": "uint256",
              "name": "listingLength",
              "type": "uint256"
            },
            {
              "internalType": "string",
              "name": "compliance",
              "type": "string"
            }
          ],
          "internalType": "struct NFTListing",
          "name": "listing",
          "type": "tuple"
        },
        {
          "internalType": "address",
          "name": "tknAddress",
          "type": "address"
        },
        {
          "internalType": "uint256",
          "name": "tknId",
          "type": "uint256"
        }
      ],
      "stateMutability": "view",
      "type": "function"
    },
    {
      "inputs": [
        {
          "components": [
            {
              "internalType": "address",
              "name": "tknAddress",
              "type": "address"
            },
            {
              "internalType": "uint256",
              "name": "tknId",
              "type": "uint256"
            },
            {
              "internalType": "uint256",
              "name": "amount",
              "type": "uint256"
            },
            {
              "internalType": "uint256",
              "name": "listingLength",
              "type": "uint256"
            },
            {
              "internalType": "string",
              "name": "compliance",
              "type": "string"
            }
          ],
          "internalType": "struct NFTListing",
          "name": "listing",
          "type": "tuple"
        }
      ],
      "name": "register",
      "outputs": [],
      "stateMutability": "nonpayable",
      "type": "function"
    },
    {
      "inputs": [],
      "name": "renounceOwnership",
      "outputs": [],
      "stateMutability": "nonpayable",
      "type": "function"
    },
    {
      "inputs": [
        {
          "internalType": "string",
          "name": "message",
          "type": "string"
        }
      ],
      "name": "sendEvent",
      "outputs": [],
      "stateMutability": "nonpayable",
      "type": "function"
    },
    {
      "inputs": [
        {
          "internalType": "address",
          "name": "newOwner",
          "type": "address"
        }
      ],
      "name": "transferOwnership",
      "outputs": [],
      "stateMutability": "nonpayable",
      "type": "function"
    },
    {
      "inputs": [
        {
          "components": [
            {
              "internalType": "address",
              "name": "tknAddress",
              "type": "address"
            },
            {
              "internalType": "uint256",
              "name": "tknId",
              "type": "uint256"
            },
            {
              "internalType": "uint256",
              "name": "amount",
              "type": "uint256"
            },
            {
              "internalType": "uint256",
              "name": "listingLength",
              "type": "uint256"
            },
            {
              "internalType": "string",
              "name": "compliance",
              "type": "string"
            }
          ],
          "internalType": "struct NFTListing",
          "name": "listing",
          "type": "tuple"
        },
        {
          "internalType": "address",
          "name": "recommendedCollection",
          "type": "address"
        },
        {
          "internalType": "uint256",
          "name": "recommendedId",
          "type": "uint256"
        }
      ],
      "name": "updateMatch",
      "outputs": [],
      "stateMutability": "nonpayable",
      "type": "function"
    }
  ],
  "transactionHash": "0x04463ffdd0d8d8b2f4e8a9608e79d0631158fed9b5be4e70cab0c07720d23f94",
  "args": [],
  "numDeployments": 1,
  "solcInputHash": "ea5dba2d53d6670b513ef05ac10c80b7",
  "bytecode": "0x608060405234801561001057600080fd5b5061002d61002261003260201b60201c565b61003a60201b60201c565b6100fe565b600033905090565b60008060009054906101000a900473ffffffffffffffffffffffffffffffffffffffff169050816000806101000a81548173ffffffffffffffffffffffffffffffffffffffff021916908373ffffffffffffffffffffffffffffffffffffffff1602179055508173ffffffffffffffffffffffffffffffffffffffff168173ffffffffffffffffffffffffffffffffffffffff167f8be0079c531659141344cd1fd0a4f28419497f9722a3daafe3b4186f6b6457e060405160405180910390a35050565b61162e8061010d6000396000f3fe608060405234801561001057600080fd5b50600436106100885760003560e01c80639adbd65c1161005b5780639adbd65c146100ed5780639d3a62151461011d578063a2f3c16014610139578063f2fde38b1461016b57610088565b80631c63758d1461008d57806327e0b899146100a9578063715018a6146100c55780638da5cb5b146100cf575b600080fd5b6100a760048036038101906100a29190610eba565b610187565b005b6100c360048036038101906100be9190610e71565b610384565b005b6100cd6103c0565b005b6100d76103d4565b6040516100e491906111cf565b60405180910390f35b61010760048036038101906101029190610eba565b6103fd565b6040516101149190611298565b60405180910390f35b61013760048036038101906101329190610f03565b6106b5565b005b610153600480360381019061014e9190610f72565b6108b5565b6040516101629392919061125a565b60405180910390f35b61018560048036038101906101809190610e44565b610a0f565b005b6000805b6001805490508110156102c957826000015173ffffffffffffffffffffffffffffffffffffffff16600182815481106101c7576101c66114c5565b5b906000526020600020906005020160000160009054906101000a900473ffffffffffffffffffffffffffffffffffffffff1673ffffffffffffffffffffffffffffffffffffffff1614801561024457508260200151600182815481106102305761022f6114c5565b5b906000526020600020906005020160010154145b80156102785750826040015160018281548110610264576102636114c5565b5b906000526020600020906005020160020154145b80156102ac5750826060015160018281548110610298576102976114c5565b5b906000526020600020906005020160030154145b156102b657600191505b80806102c19061141e565b91505061018b565b508061038057600182908060018154018082558091505060019003906000526020600020906005020160009091909190915060008201518160000160006101000a81548173ffffffffffffffffffffffffffffffffffffffff021916908373ffffffffffffffffffffffffffffffffffffffff160217905550602082015181600101556040820151816002015560608201518160030155608082015181600401908051906020019061037c929190610bdd565b5050505b5050565b7fa33d7216253260717fd36eba0370f658627198de9a36e4ec224103bd06c1eea633826040516103b59291906111ea565b60405180910390a150565b6103c8610a93565b6103d26000610b11565b565b60008060009054906101000a900473ffffffffffffffffffffffffffffffffffffffff16905090565b610405610c63565b60005b60018054905081101561067957826000015173ffffffffffffffffffffffffffffffffffffffff1660018281548110610444576104436114c5565b5b906000526020600020906005020160000160009054906101000a900473ffffffffffffffffffffffffffffffffffffffff1673ffffffffffffffffffffffffffffffffffffffff161480156104c157508260200151600182815481106104ad576104ac6114c5565b5b906000526020600020906005020160010154145b156106665760026000828152602001908152602001600020604051806060016040529081600082016040518060a00160405290816000820160009054906101000a900473ffffffffffffffffffffffffffffffffffffffff1673ffffffffffffffffffffffffffffffffffffffff1673ffffffffffffffffffffffffffffffffffffffff168152602001600182015481526020016002820154815260200160038201548152602001600482018054610578906113bb565b80601f01602080910402602001604051908101604052809291908181526020018280546105a4906113bb565b80156105f15780601f106105c6576101008083540402835291602001916105f1565b820191906000526020600020905b8154815290600101906020018083116105d457829003601f168201915b50505050508152505081526020016005820160009054906101000a900473ffffffffffffffffffffffffffffffffffffffff1673ffffffffffffffffffffffffffffffffffffffff1673ffffffffffffffffffffffffffffffffffffffff1681526020016006820154815250509150506106b0565b80806106719061141e565b915050610408565b506040518060600160405280838152602001600073ffffffffffffffffffffffffffffffffffffffff168152602001600081525090505b919050565b60005b6001805490508110156108af57836000015173ffffffffffffffffffffffffffffffffffffffff16600182815481106106f4576106f36114c5565b5b906000526020600020906005020160000160009054906101000a900473ffffffffffffffffffffffffffffffffffffffff1673ffffffffffffffffffffffffffffffffffffffff16148015610771575083602001516001828154811061075d5761075c6114c5565b5b906000526020600020906005020160010154145b1561089c5760405180606001604052808581526020018473ffffffffffffffffffffffffffffffffffffffff168152602001838152506002600083815260200190815260200160002060008201518160000160008201518160000160006101000a81548173ffffffffffffffffffffffffffffffffffffffff021916908373ffffffffffffffffffffffffffffffffffffffff1602179055506020820151816001015560408201518160020155606082015181600301556080820151816004019080519060200190610844929190610bdd565b50505060208201518160050160006101000a81548173ffffffffffffffffffffffffffffffffffffffff021916908373ffffffffffffffffffffffffffffffffffffffff160217905550604082015181600601559050505b80806108a79061141e565b9150506106b8565b50505050565b6002602052806000526040600020600091509050806000016040518060a00160405290816000820160009054906101000a900473ffffffffffffffffffffffffffffffffffffffff1673ffffffffffffffffffffffffffffffffffffffff1673ffffffffffffffffffffffffffffffffffffffff16815260200160018201548152602001600282015481526020016003820154815260200160048201805461095c906113bb565b80601f0160208091040260200160405190810160405280929190818152602001828054610988906113bb565b80156109d55780601f106109aa576101008083540402835291602001916109d5565b820191906000526020600020905b8154815290600101906020018083116109b857829003601f168201915b505050505081525050908060050160009054906101000a900473ffffffffffffffffffffffffffffffffffffffff16908060060154905083565b610a17610a93565b600073ffffffffffffffffffffffffffffffffffffffff168173ffffffffffffffffffffffffffffffffffffffff161415610a87576040517f08c379a0000000000000000000000000000000000000000000000000000000008152600401610a7e9061121a565b60405180910390fd5b610a9081610b11565b50565b610a9b610bd5565b73ffffffffffffffffffffffffffffffffffffffff16610ab96103d4565b73ffffffffffffffffffffffffffffffffffffffff1614610b0f576040517f08c379a0000000000000000000000000000000000000000000000000000000008152600401610b069061123a565b60405180910390fd5b565b60008060009054906101000a900473ffffffffffffffffffffffffffffffffffffffff169050816000806101000a81548173ffffffffffffffffffffffffffffffffffffffff021916908373ffffffffffffffffffffffffffffffffffffffff1602179055508173ffffffffffffffffffffffffffffffffffffffff168173ffffffffffffffffffffffffffffffffffffffff167f8be0079c531659141344cd1fd0a4f28419497f9722a3daafe3b4186f6b6457e060405160405180910390a35050565b600033905090565b828054610be9906113bb565b90600052602060002090601f016020900481019282610c0b5760008555610c52565b82601f10610c2457805160ff1916838001178555610c52565b82800160010185558215610c52579182015b82811115610c51578251825591602001919060010190610c36565b5b509050610c5f9190610ca0565b5090565b6040518060600160405280610c76610cbd565b8152602001600073ffffffffffffffffffffffffffffffffffffffff168152602001600081525090565b5b80821115610cb9576000816000905550600101610ca1565b5090565b6040518060a00160405280600073ffffffffffffffffffffffffffffffffffffffff168152602001600081526020016000815260200160008152602001606081525090565b6000610d15610d10846112df565b6112ba565b905082815260208101848484011115610d3157610d30611532565b5b610d3c848285611379565b509392505050565b600081359050610d53816115ca565b92915050565b600082601f830112610d6e57610d6d611523565b5b8135610d7e848260208601610d02565b91505092915050565b600060a08284031215610d9d57610d9c611528565b5b610da760a06112ba565b90506000610db784828501610d44565b6000830152506020610dcb84828501610e2f565b6020830152506040610ddf84828501610e2f565b6040830152506060610df384828501610e2f565b606083015250608082013567ffffffffffffffff811115610e1757610e1661152d565b5b610e2384828501610d59565b60808301525092915050565b600081359050610e3e816115e1565b92915050565b600060208284031215610e5a57610e5961153c565b5b6000610e6884828501610d44565b91505092915050565b600060208284031215610e8757610e8661153c565b5b600082013567ffffffffffffffff811115610ea557610ea4611537565b5b610eb184828501610d59565b91505092915050565b600060208284031215610ed057610ecf61153c565b5b600082013567ffffffffffffffff811115610eee57610eed611537565b5b610efa84828501610d87565b91505092915050565b600080600060608486031215610f1c57610f1b61153c565b5b600084013567ffffffffffffffff811115610f3a57610f39611537565b5b610f4686828701610d87565b9350506020610f5786828701610d44565b9250506040610f6886828701610e2f565b9150509250925092565b600060208284031215610f8857610f8761153c565b5b6000610f9684828501610e2f565b91505092915050565b610fa88161133d565b82525050565b610fb78161133d565b82525050565b6000610fc882611310565b610fd2818561131b565b9350610fe2818560208601611388565b610feb81611541565b840191505092915050565b600061100182611310565b61100b818561132c565b935061101b818560208601611388565b61102481611541565b840191505092915050565b600061103c60268361132c565b915061104782611552565b604082019050919050565b600061105f60208361132c565b915061106a826115a1565b602082019050919050565b600060a08301600083015161108d6000860182610f9f565b5060208301516110a060208601826111b1565b5060408301516110b360408601826111b1565b5060608301516110c660608601826111b1565b50608083015184820360808601526110de8282610fbd565b9150508091505092915050565b600060a0830160008301516111036000860182610f9f565b50602083015161111660208601826111b1565b50604083015161112960408601826111b1565b50606083015161113c60608601826111b1565b50608083015184820360808601526111548282610fbd565b9150508091505092915050565b6000606083016000830151848203600086015261117e8282611075565b91505060208301516111936020860182610f9f565b5060408301516111a660408601826111b1565b508091505092915050565b6111ba8161136f565b82525050565b6111c98161136f565b82525050565b60006020820190506111e46000830184610fae565b92915050565b60006040820190506111ff6000830185610fae565b81810360208301526112118184610ff6565b90509392505050565b600060208201905081810360008301526112338161102f565b9050919050565b6000602082019050818103600083015261125381611052565b9050919050565b6000606082019050818103600083015261127481866110eb565b90506112836020830185610fae565b61129060408301846111c0565b949350505050565b600060208201905081810360008301526112b28184611161565b905092915050565b60006112c46112d5565b90506112d082826113ed565b919050565b6000604051905090565b600067ffffffffffffffff8211156112fa576112f96114f4565b5b61130382611541565b9050602081019050919050565b600081519050919050565b600082825260208201905092915050565b600082825260208201905092915050565b60006113488261134f565b9050919050565b600073ffffffffffffffffffffffffffffffffffffffff82169050919050565b6000819050919050565b82818337600083830152505050565b60005b838110156113a657808201518184015260208101905061138b565b838111156113b5576000848401525b50505050565b600060028204905060018216806113d357607f821691505b602082108114156113e7576113e6611496565b5b50919050565b6113f682611541565b810181811067ffffffffffffffff82111715611415576114146114f4565b5b80604052505050565b60006114298261136f565b91507fffffffffffffffffffffffffffffffffffffffffffffffffffffffffffffffff82141561145c5761145b611467565b5b600182019050919050565b7f4e487b7100000000000000000000000000000000000000000000000000000000600052601160045260246000fd5b7f4e487b7100000000000000000000000000000000000000000000000000000000600052602260045260246000fd5b7f4e487b7100000000000000000000000000000000000000000000000000000000600052603260045260246000fd5b7f4e487b7100000000000000000000000000000000000000000000000000000000600052604160045260246000fd5b600080fd5b600080fd5b600080fd5b600080fd5b600080fd5b600080fd5b6000601f19601f8301169050919050565b7f4f776e61626c653a206e6577206f776e657220697320746865207a65726f206160008201527f6464726573730000000000000000000000000000000000000000000000000000602082015250565b7f4f776e61626c653a2063616c6c6572206973206e6f7420746865206f776e6572600082015250565b6115d38161133d565b81146115de57600080fd5b50565b6115ea8161136f565b81146115f557600080fd5b5056fea26469706673582212204897b6df42da6dc77599be05dfd4c12372f2cd3be5c30c933ffe44d8b6ba1a6564736f6c63430008070033",
  "devdoc": {
    "kind": "dev",
    "methods": {
      "owner()": {
        "details": "Returns the address of the current owner."
      },
      "renounceOwnership()": {
        "details": "Leaves the contract without owner. It will not be possible to call `onlyOwner` functions anymore. Can only be called by the current owner. NOTE: Renouncing ownership will leave the contract without an owner, thereby removing any functionality that is only available to the owner."
      },
      "transferOwnership(address)": {
        "details": "Transfers ownership of the contract to a new account (`newOwner`). Can only be called by the current owner."
      }
    },
    "version": 1
  },
  "userdoc": {
    "kind": "user",
    "methods": {
      "getMatch((address,uint256,uint256,uint256,string))": {
        "notice": "Return recommended match. TODO Probably too optimistic matching, and might want to hash the listings for cheaper comparison ..."
      },
      "register((address,uint256,uint256,uint256,string))": {
        "notice": "register NFTListing to be matched"
      },
      "sendEvent(string)": {
        "notice": "Fire of an event that NFT Gateway can listen for using a subscriber"
      },
      "updateMatch((address,uint256,uint256,uint256,string),address,uint256)": {
        "notice": "Update registry with match. TODO Probably too optimistic matching, and might want to hash the listings for cheaper comparison ..."
      }
    },
    "notice": "Finds another NFT that is just like the listed one",
    "version": 1
  },
  "storageLayout": {
    "storage": [
      {
        "astId": 7,
        "contract": "contracts/NFTFinder.sol:NFTFinder",
        "label": "_owner",
        "offset": 0,
        "slot": "0",
        "type": "t_address"
      },
      {
        "astId": 1879,
        "contract": "contracts/NFTFinder.sol:NFTFinder",
        "label": "registry",
        "offset": 0,
        "slot": "1",
        "type": "t_array(t_struct(NFTListing)2103_storage)dyn_storage"
      },
      {
        "astId": 1884,
        "contract": "contracts/NFTFinder.sol:NFTFinder",
        "label": "recommendation",
        "offset": 0,
        "slot": "2",
        "type": "t_mapping(t_uint256,t_struct(NFTRecommendation)2117_storage)"
      }
    ],
    "types": {
      "t_address": {
        "encoding": "inplace",
        "label": "address",
        "numberOfBytes": "20"
      },
      "t_array(t_struct(NFTListing)2103_storage)dyn_storage": {
        "base": "t_struct(NFTListing)2103_storage",
        "encoding": "dynamic_array",
        "label": "struct NFTListing[]",
        "numberOfBytes": "32"
      },
      "t_mapping(t_uint256,t_struct(NFTRecommendation)2117_storage)": {
        "encoding": "mapping",
        "key": "t_uint256",
        "label": "mapping(uint256 => struct NFTRecommendation)",
        "numberOfBytes": "32",
        "value": "t_struct(NFTRecommendation)2117_storage"
      },
      "t_string_storage": {
        "encoding": "bytes",
        "label": "string",
        "numberOfBytes": "32"
      },
      "t_struct(NFTListing)2103_storage": {
        "encoding": "inplace",
        "label": "struct NFTListing",
        "members": [
          {
            "astId": 2094,
            "contract": "contracts/NFTFinder.sol:NFTFinder",
            "label": "tknAddress",
            "offset": 0,
            "slot": "0",
            "type": "t_address"
          },
          {
            "astId": 2096,
            "contract": "contracts/NFTFinder.sol:NFTFinder",
            "label": "tknId",
            "offset": 0,
            "slot": "1",
            "type": "t_uint256"
          },
          {
            "astId": 2098,
            "contract": "contracts/NFTFinder.sol:NFTFinder",
            "label": "amount",
            "offset": 0,
            "slot": "2",
            "type": "t_uint256"
          },
          {
            "astId": 2100,
            "contract": "contracts/NFTFinder.sol:NFTFinder",
            "label": "listingLength",
            "offset": 0,
            "slot": "3",
            "type": "t_uint256"
          },
          {
            "astId": 2102,
            "contract": "contracts/NFTFinder.sol:NFTFinder",
            "label": "compliance",
            "offset": 0,
            "slot": "4",
            "type": "t_string_storage"
          }
        ],
        "numberOfBytes": "160"
      },
      "t_struct(NFTRecommendation)2117_storage": {
        "encoding": "inplace",
        "label": "struct NFTRecommendation",
        "members": [
          {
            "astId": 2112,
            "contract": "contracts/NFTFinder.sol:NFTFinder",
            "label": "listing",
            "offset": 0,
            "slot": "0",
            "type": "t_struct(NFTListing)2103_storage"
          },
          {
            "astId": 2114,
            "contract": "contracts/NFTFinder.sol:NFTFinder",
            "label": "tknAddress",
            "offset": 0,
            "slot": "5",
            "type": "t_address"
          },
          {
            "astId": 2116,
            "contract": "contracts/NFTFinder.sol:NFTFinder",
            "label": "tknId",
            "offset": 0,
            "slot": "6",
            "type": "t_uint256"
          }
        ],
        "numberOfBytes": "224"
      },
      "t_uint256": {
        "encoding": "inplace",
        "label": "uint256",
        "numberOfBytes": "32"
      }
    }
  }
}